:040F6000206D6D0093
:100E1200C100C101C102043600000000042200002A
:100E2200000004260000000002410000023E000013
:100E3200022C000002300000015000044C000000AF
:100E420000043A00000000012E00014300044800A3
:030E52000000009D
:100DC900D294439020120F52120EFB120EE0C294DD
:100DD900E4F5C53000FD85212FC200E4F5C53000DA
:100DE900FD852140C200D294E52F75F004A4FFE5EA
:100DF90040C4131354037C002FFFEC35F0FEE48F3D
:090E0900258E24F523F52280C595
:03004B00020EC4DE
:100EC400C0E0C0D075D000C007AFC4EF2480700567
:0C0ED40085C521D200D007D0D0D0E0327C
:03000B00020C5292
:100C5200C0E0C0F0C083C082C0D075D000C000C068
:100C620001C002C003C004C005C006C007C28C7523
:100C72008C3C758AB0D28C0550AF25AE24AD23AC26
:100C820022E4120A9E7B007A40794E78451208F8D7
:100C9200E4FBFA79807844120A01120ADC8F4F8E43
:100CA2004E8D4D8C4CE55075F00F84E5F07071F56A
:100CB20050120A9E7B2D7AB2799D78BD1208F87B7C
:100CC200CD7A8C79247843120807120ADC8F3D8E84
:100CD2003C8D3B8C3AE47B0AFAF9F8120BB2EB2416
:100CE20030F52BE47B0AFAF9F8AF3DAE3CAD3BACF4
:100CF2003A120BB2E47B0AFAF9F8120BB2EB243087
:100D0200F52A120F417F85120F157B007A00792A8E
:100D12007D02120E567BFF7A0F79607D03120E560A
:100D2200D007D006D005D004D003D002D001D00025
:0B0D3200D0D0D082D083D0F0D0E032CF
:100EFB00D29443C32043C30143C31053C3F743C32B
:0A0F0B000443B104D2AF43C34022F7
:0E0F5200758901758C3C758AB0D2A9D28C22AB
:100EE0007F647E00120E8A7F38120F157F0C120F5E
:0B0EF000157F01120F157F80020F1507
:100F15008F0D120F41850DA0C280120E82C2827FF5
:060F2500057E00020E8AA9
:100F2B008F0C120F41850CA0D280120E82C2827FD1
:060F3B00057E00020E8A93
:100E56008B088A09890A8D0BE50BD39400401CABDD
:100E660008AA09A90A120B5DFF120F2B7401250AA5
:0C0E7600F50AE43509F509150B80DD22B2
:100F410075A0FFC280D281C282120E86D282C28275
:010F5100227D
:080E8200C281D2827F057E00CF
:100E8A00D3EF9400EE64809480400DE4FD0DBD051F
:080E9A00FCEF1F70EB1E80E865
:010EA200222D
:100EA300D3EF9400EE648094804015E4FCFD0DBD07
:100EB30000010CBC01F8BD7EF5EF1F70E31E80E05E
:010EC300220C
:10080000020B48E86480F8E933E83360110460F0D3
:10081000ED33EC337009E8FCE9FDEAFEEBFF22045E
:1008200060DED3EB9FEA9EE99DE8C2E78CF0C2F759
:1008300095F0400CE8CCF8E9CDF9EACEFAEBCFFB25
:10084000120B1385D0F05804700320D5B3E8047060
:10085000075002B2D5020B5292D5EC0460F7E4CCFB
:10086000C0E0C398F8603B94186008400DD0E0FBEE
:10087000020B2AE4FBFAC9FC8028E830E406E4C94C
:10088000FBE4CAFCE830E305E4C9CACBFCE8540742
:100890006010F8C3E913F9EA13FAEB13FBEC13FC4D
:1008A000D8F130F52FC3E49CFCEF9BFFEE9AFEEDF0
:1008B00099FDD0E0FBEF4E4D4C701222DB03020B92
:1008C0004FEC2CFCEF33FFEE33FEED33FDED30E764
:1008D000EB020B2AEF2BFFEE3AFEED39FDD0E0FBE9
:1008E00050130BBB0003020B52ED13FDEE13FEEF92
:0808F00013FFEC13FC020B2ABC
:1008F800EC4D6011E8497017ED33EC3304600DE4FA
:10090800FCFFFEFD22E933E8330470F8020B4812BD
:100918000B1358046009E4CC2481500628500902BE
:100928000B52284003020B4FC0E0EB4A7044B980D9
:1009380006D0E0FB020B3EEF4E701CBD8008EBFFBB
:10094800EAFEE9FD80EBE98DF0A4FEE5F00209E19D
:10095800E9CDF9EAFEEBFFEF89F0A4FCE5F0CE89DA
:10096800F0A42EFFE435F0CD89F0A42DFEE435F097
:100978008067EF4E7005BD80D780C3EF8BF0A4ACC5
:10098800F0EE8BF0A42CFCE435F0F8EF8AF0A42C00
:10099800E5F038FCE433CB8DF0A42CFCE5F03BF813
:1009A800EE8AF0A42CFCE5F038F8E433CF89F0A403
:1009B8002CFCE5F038CF3400CE89F0A42FFFE5F009
:1009C8003EFEE433C98DF0A42EFEE5F039CD8AF061
:1009D800A42FFFE5F03EFEE43DFD33D0E0FB5007D9
:1009E8000BBB000F020B52EC2CFCEF33FFEE33FE77
:0609F800ED33FD020B2AA5
:1009FE00020B52EC5D046005E859047003020B48CB
:100A0E00120B13580460F6EC4860F2EC7004FDFE15
:100A1E00FF22C860DB2481C85009C39860025006CB
:100A2E00020B4F9850CAF582E9294B4A7005AB82EA
:100A3E00020B3E75F0007C1A7880C3EF9BEE9AEDA8
:100A4E0099400DC3EF9BFFEE9AFEED99FDE842F043
:100A5E00DC23ACF0D0E0FFD0E0FED0E0FDAB822096
:100A6E00E7101BEB60BAEC2CFCEF33FFEE33FEED20
:100A7E0033FD020B2AE803F830E705C0F075F000ED
:100A8E00EF2FFFEE33FEED33FD40B830E7C280AA04
:100A9E0075F020800E75F010800575F0087D007ED3
:100AAE00007F003392D530D503120C44EC33401046
:100ABE00EF33FFEE33FEED33FDEC33FCD5F0ED22DC
:0E0ACE00E5F0247EA2D513CC92E7CDCEFF2218
:100ADC00EDD2E7CD33EC3392D524814006E4FFFE12
:100AEC00FDFC22FCE4CFCECDCC24E0501174FF8071
:100AFC00EDC3CC13CCCD13CDCE13CECF13CF04700E
:070B0C00F030D5DE020C44BD
:100B1300E9D2E7C933E833F892D5EDD2E7CD33EC28
:070B230033FC5002B2D522A1
:100B2A00EC30E7100FBF000C0EBE00080DBD00042C
:100B3A000BEB6014A2D5EB13FCED92E7FD2274FFD8
:100B4A00FCFDFEFF22E480F8A2D574FF13FC7D8031
:030B5A00E480EF45
:03000000020D3DB1
:0C0D3D00787FE4F6D8FD758150020D842B
:100B5D00BB010689828A83E0225002E722BBFE0296
:090B6D00E32289828A83E49322C9
:100B760075F008758200EF2FFFEE33FECD33CDCC36
:100B860033CCC58233C5829BED9AEC99E5829840B9
:100B96000CF582EE9BFEED9AFDEC99FC0FD5F0D696
:100BA600E4CEFBE4CDFAE4CCF9A88222B800C1B9C0
:100BB6000059BA002DEC8BF084CFCECDFCE5F0CBFE
:100BC600F97818EF2FFFEE33FEED33FDEC33FCEB37
:100BD60033FB10D703994004EB99FB0FD8E5E4F9F2
:100BE600FA227818EF2FFFEE33FEED33FDEC33FCDF
:100BF600C933C910D7059BE99A4007EC9BFCE99AD3
:100C0600F90FD8E0E4C9FAE4CCFB2275F010EF2F17
:100C1600FFEE33FEED33FDCC33CCC833C810D70717
:100C26009BEC9AE899400AED9BFDEC9AFCE899F852
:0E0C36000FD5F0DAE4CDFBE4CCFAE4C8F922E5
:0E0C4400C3E49FFFE49EFEE49DFDE49CFC22C1
:100D4900020DC9E493A3F8E493A34003F68001F2EA
:100D590008DFF48029E493A3F85407240CC8C333AB
:100D6900C4540F4420C8834004F456800146F6DF7A
:100D7900E4800B0102040810204080900E12E47EEA
:100D8900019360BCA3FF543F30E509541FFEE4936F
:100D9900A360010ECF54C025E060A840B8E493A336
:100DA900FAE493A3F8E493A3C8C582C8CAC583CA61
:100DB900F0A3C8C582C8CAC583CADFE9DEE780BE19
:010E5500009C
:00000001FF
