:030000000203B741
:03003B0002039C21
:1002000075A00051D751D7515B51D751D751D774F1
:1002100080519851D7785051B81202E81202E81272
:1002200002E81202E81202E81202E81202E81202E0
:10023000E81202E81202E822C00775A00051D75167
:10024000D7E894602480FF515B51D751D751D7EF45
:10025000519851D7786051C6D0072275A038C28016
:10026000C281D28251D7C28251D775A00CC280C23E
:1002700081D28251D7C28251D775A001C280C2817A
:10028000D28251D7C28251D775A006C280C281D214
:100290008251D7C28251D722F5A0C280C281D282B8
:1002A00051D7C28251D722F5A0D280C281D28251C9
:1002B000D7C28251D751D722C0E0E4E6600551A7EA
:1002C0000880F7D0E022C0E0E4E6600851A71202FF
:1002D000E80880F4D0E022C000C001780179FFD99D
:1002E000FED8FAD001D00022C000C001C0027A0AB4
:1002F000783279C8D9FED8FADAF6D002D001D00027
:1003000022C000C007C002C003C004C005C006AAC6
:1003100090AB90EA54F0B470047C008013B4B00445
:0B0320007C01800CB4D0047C0280053E
:10032B00B4E04E7C0375900FE590540FB40E047D32
:10033B00008013B40D047D01800CB40B047D02808E
:10034B0005B4072D7D0375F004ECA42DFEFF740995
:10035B009F4010EF2430755D30F55E755F00120223
:10036B0000800EEF2437755D30F55E755F0012026D
:10037B0000D006D005D004D003D002D007D0002285
:10038B00C004C0037CC87B32DBFEDCFAD003D00494
:10039B0022C00212038BAA90BAF003D002321203CE
:1003AB0001E59E12025B7590F0D0023275504B75D1
:1003BB005145755259755320755450755552755694
:1003CB0045755753755853755945755A44755B2088
:1003DB00755C3A7860764108764208764308764435
:1003EB000876450876460876470876480876490821
:1003FB00764A08764B08764C08764D08764E08768A
:10040B004F0876500876007590F0D2AFE5B14401F5
:10041B00F5B1759C0F759DF0786012025B7590F0CD
:05042B0012023880F30D
:00000001FF
