:10094000C100C101C103C102045700000000045CE2
:100950000000000004220000000004260000000047
:1009600002720000022B000002650000026000001D
:10097000022D000002310000026800000164000145
:100980006200012F00016700046E00000000012AD0
:10099000EF015BBE017401202037EFBEF18CF2FE47
:1009A000F3CEF529F63FF750F7DFF7DFF750F63FC4
:0A09B000F529F3CEF2FEF18CEFBE44
:100A0A00D2B4D2B5120A2E120A66C2B4C2B585642D
:100A1A00C53000FDC2008562C53000FDC200D2B4F7
:040A2A00D2B580E6DB
:100A6600758911758BBE758DEF758AAF758C3CD205
:080A7600AFD2A9D2ABD28C2251
:03001B000209BB1C
:1009BB00C0E0C0F0C0D075D000C000C004C005C0FE
:1009CB0006C007C28E855B8B852A8DB202A202E41C
:1009DB00FE33FFAC72AD73120A7E8E2B8F2CA202EC
:1009EB00E433FCED8CF0A4F562EEF564D28ED00707
:0F09FB00D006D005D004D000D0D0D0F0D0E0325C
:03000B00020800E8
:10080000C0E0C0F0C0D075D000C000C004C005C0BA
:1008100006C007C28C758AAF758C3C0569E56970A6
:100820000205681574E5747026E567B42006C28C6D
:10083000C28E801BB2B774372567F8E6F52A743884
:100840002567F8E6F55B05670567757428D28ED3D2
:10085000E5699418E5689400500FAE68AF697C00B4
:100860007DAA120A7E8E728F73D3E5699430E56893
:1008700094004021D3E5699478E56894005016AE61
:1008800068AF697C007D39120A7EC374B89FF57326
:10089000741A9EF572E569647845687004F568F528
:1008A00069D28CD007D006D005D004D000D0D0D0EB
:0408B000F0D0E03272
:100A2E00D2B5D2B443C32043C30143C31043C3085A
:0C0A3E0053C3FB43B104D2AF43C34022BA
:03004B00020A4A5C
:100A4A00C0E0C0D075D000C007AFC4EF24807005E5
:0C0A5A0085C521D200D007D0D0D0E032FA
:030000000208B43F
:0C08B400787FE4F6D8FD7581740208FB23
:100A7E00EF8DF0A4A8F0CF8CF0A428CE8DF0A42E8C
:020A8E00FE2246
:1008C000020A0AE493A3F8E493A34003F68001F23A
:1008D00008DFF48029E493A3F85407240CC8C33339
:1008E000C4540F4420C8834004F456800146F6DF08
:1008F000E4800B0102040810204080900940E47E4F
:10090000019360BCA3FF543F30E509541FFEE493FC
:10091000A360010ECF54C025E060A840B8E493A3C3
:10092000FAE493A3F8E493A3C8C582C8CAC583CAEE
:10093000F0A3C8C582C8CAC583CADFE9DEE780BEA6
:0109BA00003C
:00000001FF
