:03000000020500F6
:030003000201C730
:03000B00020220CE
:1001000075A038C280C281D282316BC282316B75D8
:10011000A00CC280C281D282316BC282316B75A0C9
:1001200001C280C281D282316BC282316B75A0065E
:10013000C280C281D282316BC282316B22F5A0C2F1
:1001400080C281D282316BC282316B22F5A0D28013
:10015000C281D282316BC282316B316B22C0E0E44A
:10016000936005314CA380F7D0E022C000C0017835
:100170000179FFD9FED8FAD001D0002220434F5593
:100180004E5420495300C060C0617830F560540F70
:10019000940AE560540F50051201C18005540F12F6
:1001A00001BBE56054F0C4F561C3940AE5615003F6
:1001B0001201C11201BBD061D060222437F608C3FE
:1001C000222430F608C322A98CAA8AEBFCDD48124F
:1001D0000100748012013D90017C12015D12016BDF
:1001E00074C312013D12016BEC120186E53112015C
:1001F0004CE53012014CE9120186E53112014CE563
:100200003012014CEA120186E53112014CE5301240
:10021000014C12016B7D067B00758C00758A0032E3
:020220000B329F
:1005000075890975A8837588017D06E580758C005D
:0E051000758A007B00120100C28DD28C80FE25
:00000001FF
