:030000000203599F
:10020000C000C001780179FFD9FED8FAD001D00032
:1002100022C001C002C003C0D0FB7AC879FFD9FE5A
:10022000DAFADBF6D0D0D003D002D0012275A038A4
:10023000C280C281D2825100C282510075A00CC21C
:1002400080C281D2825100C282510075A001C28059
:10025000C281D2825100C282510075A006C280C202
:1002600081D2825100C282510022F5A0C280C28197
:10027000D2825100C282510022F5A0D280C281D226
:10028000825100C2825100510022C060C061C00092
:100290007830F560540F940AE560540F500512024F
:1002A000C98005540F1202C3E56054F0C4F561C360
:1002B000940AE56150031202C91202C3D000D06152
:1002C000D060222437F608C3222430F608C32275F2
:1002D00090FF743C120211E590540FF540C4F59064
:1002E000743C120211C297C296C295C294221202A5
:1002F000CFE540C4F87F0075A000759000120200A1
:10030000E612028AE531510051795100E530510081
:1003100051797420120279080FBF040874C01202C8
:070320006A120200BF080A87
:100327007464120211748012026ABF0C0874C0123E
:10033700026A120200BF10C1746412021112020095
:10034700740112026A748012026A74141202118014
:10035700962275A00075900012020012022D12025B
:1003670000748012026A1202007570C37571CC7531
:1003770072C27573C37574C47575C57576C675779E
:10038700C77578D87579D9757ADC757BDB757CDCB0
:10039700757DDD757EDE757FDF7560C27561C4753D
:1003A70062C67563C37564C47565C57566C67567CA
:1003B700C77568D87569D9756ADC756BDB756CDCD0
:0C03C700756DDD756EDE756FDF1202EEE5
:00000001FF
