:100C65000210000002120000020C0000020E09C46E
:080C750002080000020A000061
:100C7E00758901758A21758CCFD2AFD2A9D28C22FB
:03000B00020ACB1B
:100ACB00C0E0C0F0C083C082C0D075D000C000C0F1
:100ADB0001C002C003C004C005C006C007C28CB26F
:100AEB00B7050BE50B7002050AD39420E50A9400B9
:100AFB004003020B98AC0EAD0FEC120A037BAC7AE1
:100B0B00C57947783E1208F8C004C005C006C00777
:100B1B00AC0CAD0DEC120A037B667A14797B783F33
:100B2B001208F8D003D002D001D000120807120A25
:100B3B003C8E108F11AC0CAD0DEC120A037BAC7A12
:100B4B00C57947783E1208F8C004C005C006C00737
:100B5B00AC0EAD0FEC120A037B667A14797B783FEF
:100B6B001208F8D003D002D001D000120803120AE9
:100B7B003C8E128F1385100C85110D85120E85136B
:100B8B000FE50D24C4F509E50C3409F508E50B64F4
:100B9B0020450A7016F50AF50BF510F511F512F54F
:100BAB0013F50CF50D750E09750FC4758A21758C2F
:100BBB00CFD28CD007D006D005D004D003D002D032
:0E0BCB0001D000D0D0D082D083D0F0D0E03264
:050C8E00120C7E80FE47
:10080000020AA8E86480F8E933E83360110460F074
:10081000ED33EC337009E8FCE9FDEAFEEBFF22045E
:1008200060DED3EB9FEA9EE99DE8C2E78CF0C2F759
:1008300095F0400CE8CCF8E9CDF9EACEFAEBCFFB25
:10084000120A7385D0F05804700320D5B3E8047001
:10085000075002B2D5020AB292D5EC0460F7E4CC9C
:10086000C0E0C398F8603B94186008400DD0E0FBEE
:10087000020A8AE4FBFAC9FC8028E830E406E4C9ED
:10088000FBE4CAFCE830E305E4C9CACBFCE8540742
:100890006010F8C3E913F9EA13FAEB13FBEC13FC4D
:1008A000D8F130F52FC3E49CFCEF9BFFEE9AFEEDF0
:1008B00099FDD0E0FBEF4E4D4C701222DB03020A93
:1008C000AFEC2CFCEF33FFEE33FEED33FDED30E704
:1008D000EB020A8AEF2BFFEE3AFEED39FDD0E0FB8A
:1008E00050130BBB0003020AB2ED13FDEE13FEEF33
:0808F00013FFEC13FC020A8A5D
:1008F800EC4D6011E8497017ED33EC3304600DE4FA
:10090800FCFFFEFD22E933E8330470F8020AA8125E
:100918000A7358046009E4CC24815006285009025F
:100928000AB2284003020AAFC0E0EB4A7044B9801B
:1009380006D0E0FB020A9EEF4E701CBD8008EBFF5C
:10094800EAFEE9FD80EBE98DF0A4FEE5F00209E19D
:10095800E9CDF9EAFEEBFFEF89F0A4FCE5F0CE89DA
:10096800F0A42EFFE435F0CD89F0A42DFEE435F097
:100978008067EF4E7005BD80D780C3EF8BF0A4ACC5
:10098800F0EE8BF0A42CFCE435F0F8EF8AF0A42C00
:10099800E5F038FCE433CB8DF0A42CFCE5F03BF813
:1009A800EE8AF0A42CFCE5F038F8E433CF89F0A403
:1009B8002CFCE5F038CF3400CE89F0A42FFFE5F009
:1009C8003EFEE433C98DF0A42EFEE5F039CD8AF061
:1009D800A42FFFE5F03EFEE43DFD33D0E0FB5007D9
:1009E8000BBB000F020AB2EC2CFCEF33FFEE33FE18
:0609F800ED33FD020A8A46
:1009FE0075F020800E75F010800575F0087D007E74
:100A0E00007F003392D530D503120ABDEC3340106F
:100A1E00EF33FFEE33FEED33FDEC33FCD5F0ED227C
:0E0A2E00E5F0247EA2D513CC92E7CDCEFF22B8
:100A3C00EDD2E7CD33EC3392D524814006E4FFFEB2
:100A4C00FDFC22FCE4CFCECDCC24E0501174FF8011
:100A5C00EDC3CC13CCCD13CDCE13CECF13CF0470AE
:070A6C00F030D5DE020ABDE7
:100A7300E9D2E7C933E833F892D5EDD2E7CD33ECC9
:070A830033FC5002B2D52242
:100A8A00EC30E7100FBF000C0EBE00080DBD0004CD
:100A9A000BEB6014A2D5EB13FCED92E7FD2274FF79
:100AAA00FCFDFEFF22E480F8A2D574FF13FC7D80D2
:030ABA00E480EFE6
:03000000020BD917
:0C0BD900787FE4F6D8FD758113020C2033
:0E0ABD00C3E49FFFE49EFEE49DFDE49CFC224A
:100BE500020C8EE493A3F8E493A34003F68001F28C
:100BF50008DFF48029E493A3F85407240CC8C33311
:100C0500C4540F4420C8834004F456800146F6DFDF
:100C1500E4800B0102040810204080900C65E47EFE
:100C2500019360BCA3FF543F30E509541FFEE493D4
:100C3500A360010ECF54C025E060A840B8E493A39B
:100C4500FAE493A3F8E493A3C8C582C8CAC583CAC6
:100C5500F0A3C8C582C8CAC583CADFE9DEE780BE7E
:010C7D000076
:00000001FF
